{
  "_format": "hh-sol-artifact-1",
  "contractName": "TodoApp",
  "sourceName": "contracts/todo.sol",
  "abi": [
    {
      "inputs": [],
      "stateMutability": "nonpayable",
      "type": "constructor"
    },
    {
      "anonymous": false,
      "inputs": [
        {
          "indexed": false,
          "internalType": "uint256",
          "name": "id",
          "type": "uint256"
        },
        {
          "indexed": false,
          "internalType": "bool",
          "name": "isCompleted",
          "type": "bool"
        }
      ],
      "name": "TaskCompleted",
      "type": "event"
    },
    {
      "anonymous": false,
      "inputs": [
        {
          "indexed": false,
          "internalType": "uint256",
          "name": "id",
          "type": "uint256"
        },
        {
          "indexed": false,
          "internalType": "string",
          "name": "taskDescription",
          "type": "string"
        },
        {
          "indexed": false,
          "internalType": "bool",
          "name": "isCompleted",
          "type": "bool"
        }
      ],
      "name": "TaskCreated",
      "type": "event"
    },
    {
      "anonymous": false,
      "inputs": [
        {
          "indexed": false,
          "internalType": "uint256",
          "name": "id",
          "type": "uint256"
        }
      ],
      "name": "TaskDeleted",
      "type": "event"
    },
    {
      "inputs": [
        {
          "internalType": "uint256",
          "name": "_taskId",
          "type": "uint256"
        }
      ],
      "name": "completeTask",
      "outputs": [],
      "stateMutability": "nonpayable",
      "type": "function"
    },
    {
      "inputs": [
        {
          "internalType": "string",
          "name": "_taskDescription",
          "type": "string"
        }
      ],
      "name": "createTask",
      "outputs": [],
      "stateMutability": "nonpayable",
      "type": "function"
    },
    {
      "inputs": [
        {
          "internalType": "uint256",
          "name": "_taskId",
          "type": "uint256"
        }
      ],
      "name": "deleteTask",
      "outputs": [],
      "stateMutability": "nonpayable",
      "type": "function"
    },
    {
      "inputs": [],
      "name": "getAllTasks",
      "outputs": [
        {
          "components": [
            {
              "internalType": "uint256",
              "name": "id",
              "type": "uint256"
            },
            {
              "internalType": "string",
              "name": "taskDescription",
              "type": "string"
            },
            {
              "internalType": "bool",
              "name": "isCompleted",
              "type": "bool"
            }
          ],
          "internalType": "struct TodoApp.Task[]",
          "name": "",
          "type": "tuple[]"
        }
      ],
      "stateMutability": "view",
      "type": "function"
    },
    {
      "inputs": [
        {
          "internalType": "uint256",
          "name": "_taskId",
          "type": "uint256"
        }
      ],
      "name": "getTask",
      "outputs": [
        {
          "internalType": "uint256",
          "name": "",
          "type": "uint256"
        },
        {
          "internalType": "string",
          "name": "",
          "type": "string"
        },
        {
          "internalType": "bool",
          "name": "",
          "type": "bool"
        }
      ],
      "stateMutability": "view",
      "type": "function"
    },
    {
      "inputs": [],
      "name": "taskCount",
      "outputs": [
        {
          "internalType": "uint256",
          "name": "",
          "type": "uint256"
        }
      ],
      "stateMutability": "view",
      "type": "function"
    },
    {
      "inputs": [
        {
          "internalType": "uint256",
          "name": "",
          "type": "uint256"
        }
      ],
      "name": "tasks",
      "outputs": [
        {
          "internalType": "uint256",
          "name": "id",
          "type": "uint256"
        },
        {
          "internalType": "string",
          "name": "taskDescription",
          "type": "string"
        },
        {
          "internalType": "bool",
          "name": "isCompleted",
          "type": "bool"
        }
      ],
      "stateMutability": "view",
      "type": "function"
    }
  ],
  "bytecode": "0x6080604052348015600f57600080fd5b506000600155610beb806100246000396000f3fe608060405234801561001057600080fd5b506004361061007d5760003560e01c8063779900b41161005b578063779900b4146100d55780638d977672146100ea578063b6cb58a5146100fd578063e1e295581461011457600080fd5b8063111002aa146100825780631d65e77e14610097578063560f3192146100c2575b600080fd5b610095610090366004610849565b610127565b005b6100aa6100a5366004610902565b6101da565b6040516100b993929190610961565b60405180910390f35b6100956100d0366004610902565b610319565b6100dd6103c4565b6040516100b9919061098c565b6100aa6100f8366004610902565b61058e565b61010660015481565b6040519081526020016100b9565b610095610122366004610902565b61063c565b6001805490600061013783610a2b565b9091555050604080516060810182526001805480835260208084018681526000858701819052928352908290529390208251815592519192919082019061017e9082610ac7565b50604091820151600291909101805460ff191691151591909117905560015490517f05d0fb833127fc08168556d0e7ca9554fc3f6bc843b3b7d2bf1c35aea6bab660916101cf918490600090610961565b60405180910390a150565b60006060600080841180156101f157506001548411155b6102345760405162461bcd60e51b815260206004820152600f60248201526e125b9d985b1a59081d185cdac81251608a1b60448201526064015b60405180910390fd5b60008060008681526020019081526020016000206040518060600160405290816000820154815260200160018201805461026d90610a44565b80601f016020809104026020016040519081016040528092919081815260200182805461029990610a44565b80156102e65780601f106102bb576101008083540402835291602001916102e6565b820191906000526020600020905b8154815290600101906020018083116102c957829003601f168201915b50505091835250506002919091015460ff1615156020918201528151908201516040909201519097919650945092505050565b60008111801561032b57506001548111155b6103695760405162461bcd60e51b815260206004820152600f60248201526e125b9d985b1a59081d185cdac81251608a1b604482015260640161022b565b60008181526020819052604081208181559061038860018301826107dd565b50600201805460ff191690556040518181527fd078b251d950cc55c44340be1db732337ef4939a76e1367ee271ad2cb19c46af906020016101cf565b60606000600154116104075760405162461bcd60e51b815260206004820152600c60248201526b139bc81d185cdadcc81e595d60a21b604482015260640161022b565b600060015467ffffffffffffffff81111561042457610424610833565b60405190808252806020026020018201604052801561047b57816020015b610468604051806060016040528060008152602001606081526020016000151581525090565b8152602001906001900390816104425790505b50905060015b600154811161058857600081815260208181526040918290208251606081019093528054835260018101805491928401916104bb90610a44565b80601f01602080910402602001604051908101604052809291908181526020018280546104e790610a44565b80156105345780601f1061050957610100808354040283529160200191610534565b820191906000526020600020905b81548152906001019060200180831161051757829003601f168201915b50505091835250506002919091015460ff1615156020909101528261055a600184610b86565b8151811061056a5761056a610b9f565b6020026020010181905250808061058090610a2b565b915050610481565b50919050565b600060208190529081526040902080546001820180549192916105b090610a44565b80601f01602080910402602001604051908101604052809291908181526020018280546105dc90610a44565b80156106295780601f106105fe57610100808354040283529160200191610629565b820191906000526020600020905b81548152906001019060200180831161060c57829003601f168201915b5050506002909301549192505060ff1683565b60008111801561064e57506001548111155b61068c5760405162461bcd60e51b815260206004820152600f60248201526e125b9d985b1a59081d185cdac81259608a1b604482015260640161022b565b6000806000838152602001908152602001600020604051806060016040529081600082015481526020016001820180546106c590610a44565b80601f01602080910402602001604051908101604052809291908181526020018280546106f190610a44565b801561073e5780601f106107135761010080835404028352916020019161073e565b820191906000526020600020905b81548152906001019060200180831161072157829003601f168201915b50505091835250506002919091015460ff1615156020918201526001604080840182905260008681528084522083518155918301519293508392908201906107869082610ac7565b50604091820151600291909101805460ff19169115159190911790558051838152600160208201527fe21fa966ca5cd02748c0752352d18c48165e61cb55b4c29cccf924b5a95fcff1910160405180910390a15050565b5080546107e990610a44565b6000825580601f106107f9575050565b601f016020900490600052602060002090810190610817919061081a565b50565b5b8082111561082f576000815560010161081b565b5090565b634e487b7160e01b600052604160045260246000fd5b60006020828403121561085b57600080fd5b813567ffffffffffffffff81111561087257600080fd5b8201601f8101841361088357600080fd5b803567ffffffffffffffff81111561089d5761089d610833565b604051601f8201601f19908116603f0116810167ffffffffffffffff811182821017156108cc576108cc610833565b6040528181528282016020018610156108e457600080fd5b81602084016020830137600091810160200191909152949350505050565b60006020828403121561091457600080fd5b5035919050565b6000815180845260005b8181101561094157602081850181015186830182015201610925565b506000602082860101526020601f19601f83011685010191505092915050565b83815260606020820152600061097a606083018561091b565b90508215156040830152949350505050565b6000602082016020835280845180835260408501915060408160051b86010192506020860160005b82811015610a0957603f198786030184528151805186526020810151606060208801526109e4606088018261091b565b60409283015115159790920196909652945060209384019391909101906001016109b4565b50929695505050505050565b634e487b7160e01b600052601160045260246000fd5b600060018201610a3d57610a3d610a15565b5060010190565b600181811c90821680610a5857607f821691505b60208210810361058857634e487b7160e01b600052602260045260246000fd5b601f821115610ac257806000526020600020601f840160051c81016020851015610a9f5750805b601f840160051c820191505b81811015610abf5760008155600101610aab565b50505b505050565b815167ffffffffffffffff811115610ae157610ae1610833565b610af581610aef8454610a44565b84610a78565b6020601f821160018114610b295760008315610b115750848201515b600019600385901b1c1916600184901b178455610abf565b600084815260208120601f198516915b82811015610b595787850151825560209485019460019092019101610b39565b5084821015610b775786840151600019600387901b60f8161c191681555b50505050600190811b01905550565b81810381811115610b9957610b99610a15565b92915050565b634e487b7160e01b600052603260045260246000fdfea2646970667358221220e57c08bd1b043d9cc8e10b7b02c87814128b91a1281caaf11edf39697eb04fe064736f6c634300081b0033",
  "linkReferences": {},
  "deployedLinkReferences": {}
}